{
  "contractName": "PlaneRush",
  "abi": [
    {
      "inputs": [],
      "stateMutability": "nonpayable",
      "type": "constructor"
    },
    {
      "anonymous": false,
      "inputs": [
        {
          "indexed": true,
          "internalType": "address",
          "name": "owner",
          "type": "address"
        },
        {
          "indexed": true,
          "internalType": "address",
          "name": "approved",
          "type": "address"
        },
        {
          "indexed": true,
          "internalType": "uint256",
          "name": "tokenId",
          "type": "uint256"
        }
      ],
      "name": "Approval",
      "type": "event"
    },
    {
      "anonymous": false,
      "inputs": [
        {
          "indexed": true,
          "internalType": "address",
          "name": "owner",
          "type": "address"
        },
        {
          "indexed": true,
          "internalType": "address",
          "name": "operator",
          "type": "address"
        },
        {
          "indexed": false,
          "internalType": "bool",
          "name": "approved",
          "type": "bool"
        }
      ],
      "name": "ApprovalForAll",
      "type": "event"
    },
    {
      "anonymous": false,
      "inputs": [
        {
          "indexed": true,
          "internalType": "bytes32",
          "name": "id",
          "type": "bytes32"
        }
      ],
      "name": "ChainlinkCancelled",
      "type": "event"
    },
    {
      "anonymous": false,
      "inputs": [
        {
          "indexed": true,
          "internalType": "bytes32",
          "name": "id",
          "type": "bytes32"
        }
      ],
      "name": "ChainlinkFulfilled",
      "type": "event"
    },
    {
      "anonymous": false,
      "inputs": [
        {
          "indexed": true,
          "internalType": "bytes32",
          "name": "id",
          "type": "bytes32"
        }
      ],
      "name": "ChainlinkRequested",
      "type": "event"
    },
    {
      "anonymous": false,
      "inputs": [
        {
          "indexed": false,
          "internalType": "uint256",
          "name": "tokenId",
          "type": "uint256"
        }
      ],
      "name": "CharacterBought",
      "type": "event"
    },
    {
      "anonymous": false,
      "inputs": [
        {
          "indexed": false,
          "internalType": "uint256",
          "name": "tokenId",
          "type": "uint256"
        }
      ],
      "name": "CharacterUpForSale",
      "type": "event"
    },
    {
      "anonymous": false,
      "inputs": [
        {
          "indexed": false,
          "internalType": "string",
          "name": "ipfsLink",
          "type": "string"
        }
      ],
      "name": "DataReceivedFromAPI",
      "type": "event"
    },
    {
      "anonymous": false,
      "inputs": [
        {
          "indexed": false,
          "internalType": "uint256",
          "name": "tokenId",
          "type": "uint256"
        }
      ],
      "name": "NewCharacterGenerated",
      "type": "event"
    },
    {
      "anonymous": false,
      "inputs": [
        {
          "indexed": true,
          "internalType": "address",
          "name": "from",
          "type": "address"
        },
        {
          "indexed": true,
          "internalType": "address",
          "name": "to",
          "type": "address"
        },
        {
          "indexed": true,
          "internalType": "uint256",
          "name": "tokenId",
          "type": "uint256"
        }
      ],
      "name": "Transfer",
      "type": "event"
    },
    {
      "inputs": [
        {
          "internalType": "address",
          "name": "to",
          "type": "address"
        },
        {
          "internalType": "uint256",
          "name": "tokenId",
          "type": "uint256"
        }
      ],
      "name": "approve",
      "outputs": [],
      "stateMutability": "nonpayable",
      "type": "function"
    },
    {
      "inputs": [
        {
          "internalType": "address",
          "name": "owner",
          "type": "address"
        }
      ],
      "name": "balanceOf",
      "outputs": [
        {
          "internalType": "uint256",
          "name": "",
          "type": "uint256"
        }
      ],
      "stateMutability": "view",
      "type": "function",
      "constant": true
    },
    {
      "inputs": [],
      "name": "baseURI",
      "outputs": [
        {
          "internalType": "string",
          "name": "",
          "type": "string"
        }
      ],
      "stateMutability": "view",
      "type": "function",
      "constant": true
    },
    {
      "inputs": [
        {
          "internalType": "uint256",
          "name": "",
          "type": "uint256"
        }
      ],
      "name": "charactersForSale",
      "outputs": [
        {
          "internalType": "uint256",
          "name": "",
          "type": "uint256"
        }
      ],
      "stateMutability": "view",
      "type": "function",
      "constant": true
    },
    {
      "inputs": [],
      "name": "contractOwner",
      "outputs": [
        {
          "internalType": "address",
          "name": "",
          "type": "address"
        }
      ],
      "stateMutability": "view",
      "type": "function",
      "constant": true
    },
    {
      "inputs": [
        {
          "internalType": "uint256",
          "name": "tokenId",
          "type": "uint256"
        }
      ],
      "name": "getApproved",
      "outputs": [
        {
          "internalType": "address",
          "name": "",
          "type": "address"
        }
      ],
      "stateMutability": "view",
      "type": "function",
      "constant": true
    },
    {
      "inputs": [],
      "name": "ipfsLink",
      "outputs": [
        {
          "internalType": "string",
          "name": "",
          "type": "string"
        }
      ],
      "stateMutability": "view",
      "type": "function",
      "constant": true
    },
    {
      "inputs": [
        {
          "internalType": "address",
          "name": "owner",
          "type": "address"
        },
        {
          "internalType": "address",
          "name": "operator",
          "type": "address"
        }
      ],
      "name": "isApprovedForAll",
      "outputs": [
        {
          "internalType": "bool",
          "name": "",
          "type": "bool"
        }
      ],
      "stateMutability": "view",
      "type": "function",
      "constant": true
    },
    {
      "inputs": [],
      "name": "name",
      "outputs": [
        {
          "internalType": "string",
          "name": "",
          "type": "string"
        }
      ],
      "stateMutability": "view",
      "type": "function",
      "constant": true
    },
    {
      "inputs": [
        {
          "internalType": "uint256",
          "name": "tokenId",
          "type": "uint256"
        }
      ],
      "name": "ownerOf",
      "outputs": [
        {
          "internalType": "address",
          "name": "",
          "type": "address"
        }
      ],
      "stateMutability": "view",
      "type": "function",
      "constant": true
    },
    {
      "inputs": [
        {
          "internalType": "address",
          "name": "from",
          "type": "address"
        },
        {
          "internalType": "address",
          "name": "to",
          "type": "address"
        },
        {
          "internalType": "uint256",
          "name": "tokenId",
          "type": "uint256"
        }
      ],
      "name": "safeTransferFrom",
      "outputs": [],
      "stateMutability": "nonpayable",
      "type": "function"
    },
    {
      "inputs": [
        {
          "internalType": "address",
          "name": "from",
          "type": "address"
        },
        {
          "internalType": "address",
          "name": "to",
          "type": "address"
        },
        {
          "internalType": "uint256",
          "name": "tokenId",
          "type": "uint256"
        },
        {
          "internalType": "bytes",
          "name": "_data",
          "type": "bytes"
        }
      ],
      "name": "safeTransferFrom",
      "outputs": [],
      "stateMutability": "nonpayable",
      "type": "function"
    },
    {
      "inputs": [
        {
          "internalType": "address",
          "name": "operator",
          "type": "address"
        },
        {
          "internalType": "bool",
          "name": "approved",
          "type": "bool"
        }
      ],
      "name": "setApprovalForAll",
      "outputs": [],
      "stateMutability": "nonpayable",
      "type": "function"
    },
    {
      "inputs": [
        {
          "internalType": "bytes4",
          "name": "interfaceId",
          "type": "bytes4"
        }
      ],
      "name": "supportsInterface",
      "outputs": [
        {
          "internalType": "bool",
          "name": "",
          "type": "bool"
        }
      ],
      "stateMutability": "view",
      "type": "function",
      "constant": true
    },
    {
      "inputs": [],
      "name": "symbol",
      "outputs": [
        {
          "internalType": "string",
          "name": "",
          "type": "string"
        }
      ],
      "stateMutability": "view",
      "type": "function",
      "constant": true
    },
    {
      "inputs": [
        {
          "internalType": "uint256",
          "name": "index",
          "type": "uint256"
        }
      ],
      "name": "tokenByIndex",
      "outputs": [
        {
          "internalType": "uint256",
          "name": "",
          "type": "uint256"
        }
      ],
      "stateMutability": "view",
      "type": "function",
      "constant": true
    },
    {
      "inputs": [
        {
          "internalType": "address",
          "name": "owner",
          "type": "address"
        },
        {
          "internalType": "uint256",
          "name": "index",
          "type": "uint256"
        }
      ],
      "name": "tokenOfOwnerByIndex",
      "outputs": [
        {
          "internalType": "uint256",
          "name": "",
          "type": "uint256"
        }
      ],
      "stateMutability": "view",
      "type": "function",
      "constant": true
    },
    {
      "inputs": [
        {
          "internalType": "uint256",
          "name": "tokenId",
          "type": "uint256"
        }
      ],
      "name": "tokenURI",
      "outputs": [
        {
          "internalType": "string",
          "name": "",
          "type": "string"
        }
      ],
      "stateMutability": "view",
      "type": "function",
      "constant": true
    },
    {
      "inputs": [],
      "name": "totalSupply",
      "outputs": [
        {
          "internalType": "uint256",
          "name": "",
          "type": "uint256"
        }
      ],
      "stateMutability": "view",
      "type": "function",
      "constant": true
    },
    {
      "inputs": [
        {
          "internalType": "address",
          "name": "from",
          "type": "address"
        },
        {
          "internalType": "address",
          "name": "to",
          "type": "address"
        },
        {
          "internalType": "uint256",
          "name": "tokenId",
          "type": "uint256"
        }
      ],
      "name": "transferFrom",
      "outputs": [],
      "stateMutability": "nonpayable",
      "type": "function"
    },
    {
      "inputs": [
        {
          "internalType": "address",
          "name": "",
          "type": "address"
        }
      ],
      "name": "userAddressToHighScore",
      "outputs": [
        {
          "internalType": "string",
          "name": "",
          "type": "string"
        }
      ],
      "stateMutability": "view",
      "type": "function",
      "constant": true
    },
    {
      "inputs": [
        {
          "internalType": "address",
          "name": "_oracleAddress",
          "type": "address"
        }
      ],
      "name": "setOracleAddress",
      "outputs": [],
      "stateMutability": "nonpayable",
      "type": "function"
    },
    {
      "inputs": [
        {
          "internalType": "string",
          "name": "_jobID",
          "type": "string"
        }
      ],
      "name": "setJobID",
      "outputs": [],
      "stateMutability": "nonpayable",
      "type": "function"
    },
    {
      "inputs": [
        {
          "internalType": "uint256",
          "name": "_fee",
          "type": "uint256"
        }
      ],
      "name": "setFeeInLink",
      "outputs": [],
      "stateMutability": "nonpayable",
      "type": "function"
    },
    {
      "inputs": [],
      "name": "getUsers",
      "outputs": [
        {
          "internalType": "address[]",
          "name": "",
          "type": "address[]"
        }
      ],
      "stateMutability": "view",
      "type": "function",
      "constant": true
    },
    {
      "inputs": [
        {
          "internalType": "string",
          "name": "_url",
          "type": "string"
        }
      ],
      "name": "setApiBaseUrl",
      "outputs": [],
      "stateMutability": "nonpayable",
      "type": "function"
    },
    {
      "inputs": [
        {
          "internalType": "string",
          "name": "_url",
          "type": "string"
        }
      ],
      "name": "setApiSecondUrl",
      "outputs": [],
      "stateMutability": "nonpayable",
      "type": "function"
    },
    {
      "inputs": [
        {
          "internalType": "uint256",
          "name": "_tokenId",
          "type": "uint256"
        },
        {
          "internalType": "uint256",
          "name": "_price",
          "type": "uint256"
        }
      ],
      "name": "putUpCharacterForSale",
      "outputs": [],
      "stateMutability": "nonpayable",
      "type": "function"
    },
    {
      "inputs": [
        {
          "internalType": "uint256",
          "name": "_tokenId",
          "type": "uint256"
        }
      ],
      "name": "buyCharacter",
      "outputs": [],
      "stateMutability": "payable",
      "type": "function",
      "payable": true
    },
    {
      "inputs": [
        {
          "internalType": "string",
          "name": "score",
          "type": "string"
        }
      ],
      "name": "requestNewRandomCharacter",
      "outputs": [],
      "stateMutability": "nonpayable",
      "type": "function"
    },
    {
      "inputs": [
        {
          "internalType": "bytes32",
          "name": "_requestId",
          "type": "bytes32"
        },
        {
          "internalType": "bytes32",
          "name": "dataFromAPI",
          "type": "bytes32"
        }
      ],
      "name": "fulfillFirstRequest",
      "outputs": [
        {
          "internalType": "bytes32",
          "name": "requestId",
          "type": "bytes32"
        }
      ],
      "stateMutability": "nonpayable",
      "type": "function"
    },
    {
      "inputs": [
        {
          "internalType": "bytes32",
          "name": "_requestId",
          "type": "bytes32"
        },
        {
          "internalType": "bytes32",
          "name": "dataFromAPI",
          "type": "bytes32"
        }
      ],
      "name": "fulfillSecondRequest",
      "outputs": [],
      "stateMutability": "nonpayable",
      "type": "function"
    },
    {
      "inputs": [
        {
          "internalType": "uint256",
          "name": "_tokenId",
          "type": "uint256"
        },
        {
          "internalType": "string",
          "name": "_tokenURI",
          "type": "string"
        }
      ],
      "name": "updateTokenURI",
      "outputs": [],
      "stateMutability": "nonpayable",
      "type": "function"
    }
  ],
  "bytecode": "0x60806040526001600e556040518060400160405280600781526020017f697066733a2f2f00000000000000000000000000000000000000000000000000815250601690805190602001906200005692919062000419565b50600060175560405180606001604052806030815260200162005eb960309139601990805190602001906200008d92919062000419565b5060405180606001604052806031815260200162005e8860319139601a9080519060200190620000bf92919062000419565b50348015620000cd57600080fd5b506040518060400160405280600581526020017f506c616e650000000000000000000000000000000000000000000000000000008152506040518060400160405280600481526020017f504c4e5200000000000000000000000000000000000000000000000000000000815250620001526301ffc9a760e01b620002cc60201b60201c565b81600690805190602001906200016a92919062000419565b5080600790805190602001906200018392919062000419565b506200019c6380ac58cd60e01b620002cc60201b60201c565b620001b4635b5e139f60e01b620002cc60201b60201c565b620001cc63780e9d6360e01b620002cc60201b60201c565b5050620001f373326c977e6efc84e512bb9c30f76e30c160ed06fb620003d560201b60201c565b33601060006101000a81548173ffffffffffffffffffffffffffffffffffffffff021916908373ffffffffffffffffffffffffffffffffffffffff16021790555073c8d925525ca8759812d0c299b90247917d4d4b7c601160006101000a81548173ffffffffffffffffffffffffffffffffffffffff021916908373ffffffffffffffffffffffffffffffffffffffff1602179055507f6137333330643062346239363463303561626336366132363330373034376330601281905550662386f26fc100006013819055506000601781905550620004c8565b63ffffffff60e01b817bffffffffffffffffffffffffffffffffffffffffffffffffffffffff1916141562000369576040517f08c379a000000000000000000000000000000000000000000000000000000000815260040180806020018281038252601c8152602001807f4552433136353a20696e76616c696420696e746572666163652069640000000081525060200191505060405180910390fd5b6001600080837bffffffffffffffffffffffffffffffffffffffffffffffffffffffff19167bffffffffffffffffffffffffffffffffffffffffffffffffffffffff1916815260200190815260200160002060006101000a81548160ff02191690831515021790555050565b80600c60006101000a81548173ffffffffffffffffffffffffffffffffffffffff021916908373ffffffffffffffffffffffffffffffffffffffff16021790555050565b828054600181600116156101000203166002900490600052602060002090601f016020900481019282601f106200045c57805160ff19168380011785556200048d565b828001600101855582156200048d579182015b828111156200048c5782518255916020019190600101906200046f565b5b5090506200049c9190620004a0565b5090565b620004c591905b80821115620004c1576000816000905550600101620004a7565b5090565b90565b6159b080620004d86000396000f3fe6080604052600436106101ed5760003560e01c80634f6ccce71161010d57806395d89b41116100a0578063b88d4fde1161006f578063b88d4fde14610ee0578063c87b56dd14610ff2578063ce606ee0146110a6578063e503cafa146110fd578063e985e9c5146111c7576101ed565b806395d89b4114610d7357806398d008b014610e03578063a22cb46514610e48578063a5ac5f1c14610ea5576101ed565b806370a08231116100dc57806370a0823114610bc9578063783f2fa814610c2e57806383a91f5614610c7d578063877f282b14610cab576101ed565b80634f6ccce7146109a75780635a717299146109f65780636352211e14610abe5780636c0360eb14610b39576101ed565b806323b872dd116101855780632f745c59116101545780632f745c59146107a4578063328c9f021461081357806342842e0e146108db5780634c69c00f14610956576101ed565b806323b872dd146105fb5780632a2b5d14146106765780632b22aaea146106cf5780632b9d8c9a14610714576101ed565b8063095ea7b3116101c1578063095ea7b3146103db57806318160ddd1461043657806318e97fd1146104615780631a65e8ab14610533576101ed565b8062ce8e3e146101f257806301ffc9a71461025e57806306fdde03146102d0578063081812fc14610360575b600080fd5b3480156101fe57600080fd5b50610207611250565b6040518080602001828103825283818151815260200191508051906020019060200280838360005b8381101561024a57808201518184015260208101905061022f565b505050509050019250505060405180910390f35b34801561026a57600080fd5b506102b66004803603602081101561028157600080fd5b8101908080357bffffffffffffffffffffffffffffffffffffffffffffffffffffffff191690602001909291905050506112de565b604051808215151515815260200191505060405180910390f35b3480156102dc57600080fd5b506102e5611345565b6040518080602001828103825283818151815260200191508051906020019080838360005b8381101561032557808201518184015260208101905061030a565b50505050905090810190601f1680156103525780820380516001836020036101000a031916815260200191505b509250505060405180910390f35b34801561036c57600080fd5b506103996004803603602081101561038357600080fd5b81019080803590602001909291905050506113e7565b604051808273ffffffffffffffffffffffffffffffffffffffff1673ffffffffffffffffffffffffffffffffffffffff16815260200191505060405180910390f35b3480156103e757600080fd5b50610434600480360360408110156103fe57600080fd5b81019080803573ffffffffffffffffffffffffffffffffffffffff16906020019092919080359060200190929190505050611482565b005b34801561044257600080fd5b5061044b6115c6565b6040518082815260200191505060405180910390f35b34801561046d57600080fd5b506105316004803603604081101561048457600080fd5b8101908080359060200190929190803590602001906401000000008111156104ab57600080fd5b8201836020820111156104bd57600080fd5b803590602001918460018302840111640100000000831117156104df57600080fd5b91908080601f016020809104026020016040519081016040528093929190818152602001838380828437600081840152601f19601f8201169050808301925050505050505091929192905050506115d7565b005b34801561053f57600080fd5b506105f96004803603602081101561055657600080fd5b810190808035906020019064010000000081111561057357600080fd5b82018360208201111561058557600080fd5b803590602001918460018302840111640100000000831117156105a757600080fd5b91908080601f016020809104026020016040519081016040528093929190818152602001838380828437600081840152601f19601f82011690508083019250505050505050919291929050505061168b565b005b34801561060757600080fd5b506106746004803603606081101561061e57600080fd5b81019080803573ffffffffffffffffffffffffffffffffffffffff169060200190929190803573ffffffffffffffffffffffffffffffffffffffff1690602001909291908035906020019092919050505061183e565b005b34801561068257600080fd5b506106b96004803603604081101561069957600080fd5b8101908080359060200190929190803590602001909291905050506118b4565b6040518082815260200191505060405180910390f35b3480156106db57600080fd5b50610712600480360360408110156106f257600080fd5b810190808035906020019092919080359060200190929190505050611b92565b005b34801561072057600080fd5b50610729611e5a565b6040518080602001828103825283818151815260200191508051906020019080838360005b8381101561076957808201518184015260208101905061074e565b50505050905090810190601f1680156107965780820380516001836020036101000a031916815260200191505b509250505060405180910390f35b3480156107b057600080fd5b506107fd600480360360408110156107c757600080fd5b81019080803573ffffffffffffffffffffffffffffffffffffffff16906020019092919080359060200190929190505050611ef8565b6040518082815260200191505060405180910390f35b34801561081f57600080fd5b506108d96004803603602081101561083657600080fd5b810190808035906020019064010000000081111561085357600080fd5b82018360208201111561086557600080fd5b8035906020019184600183028401116401000000008311171561088757600080fd5b91908080601f016020809104026020016040519081016040528093929190818152602001838380828437600081840152601f19601f820116905080830192505050505050509192919290505050611f53565b005b3480156108e757600080fd5b50610954600480360360608110156108fe57600080fd5b81019080803573ffffffffffffffffffffffffffffffffffffffff169060200190929190803573ffffffffffffffffffffffffffffffffffffffff16906020019092919080359060200190929190505050612013565b005b34801561096257600080fd5b506109a56004803603602081101561097957600080fd5b81019080803573ffffffffffffffffffffffffffffffffffffffff169060200190929190505050612033565b005b3480156109b357600080fd5b506109e0600480360360208110156109ca57600080fd5b810190808035906020019092919050505061211d565b6040518082815260200191505060405180910390f35b348015610a0257600080fd5b50610abc60048036036020811015610a1957600080fd5b8101908080359060200190640100000000811115610a3657600080fd5b820183602082011115610a4857600080fd5b80359060200191846001830284011164010000000083111715610a6a57600080fd5b91908080601f016020809104026020016040519081016040528093929190818152602001838380828437600081840152601f19601f820116905080830192505050505050509192919290505050612140565b005b348015610aca57600080fd5b50610af760048036036020811015610ae157600080fd5b81019080803590602001909291905050506121f8565b604051808273ffffffffffffffffffffffffffffffffffffffff1673ffffffffffffffffffffffffffffffffffffffff16815260200191505060405180910390f35b348015610b4557600080fd5b50610b4e61222f565b6040518080602001828103825283818151815260200191508051906020019080838360005b83811015610b8e578082015181840152602081019050610b73565b50505050905090810190601f168015610bbb5780820380516001836020036101000a031916815260200191505b509250505060405180910390f35b348015610bd557600080fd5b50610c1860048036036020811015610bec57600080fd5b81019080803573ffffffffffffffffffffffffffffffffffffffff1690602001909291905050506122d1565b6040518082815260200191505060405180910390f35b348015610c3a57600080fd5b50610c6760048036036020811015610c5157600080fd5b81019080803590602001909291905050506123a6565b6040518082815260200191505060405180910390f35b610ca960048036036020811015610c9357600080fd5b81019080803590602001909291905050506123be565b005b348015610cb757600080fd5b50610d7160048036036020811015610cce57600080fd5b8101908080359060200190640100000000811115610ceb57600080fd5b820183602082011115610cfd57600080fd5b80359060200191846001830284011164010000000083111715610d1f57600080fd5b91908080601f016020809104026020016040519081016040528093929190818152602001838380828437600081840152601f19601f8201169050808301925050505050505091929192905050506125f9565b005b348015610d7f57600080fd5b50610d886126b9565b6040518080602001828103825283818151815260200191508051906020019080838360005b83811015610dc8578082015181840152602081019050610dad565b50505050905090810190601f168015610df55780820380516001836020036101000a031916815260200191505b509250505060405180910390f35b348015610e0f57600080fd5b50610e4660048036036040811015610e2657600080fd5b81019080803590602001909291908035906020019092919050505061275b565b005b348015610e5457600080fd5b50610ea360048036036040811015610e6b57600080fd5b81019080803573ffffffffffffffffffffffffffffffffffffffff169060200190929190803515159060200190929190505050612814565b005b348015610eb157600080fd5b50610ede60048036036020811015610ec857600080fd5b81019080803590602001909291905050506129cc565b005b348015610eec57600080fd5b50610ff060048036036080811015610f0357600080fd5b81019080803573ffffffffffffffffffffffffffffffffffffffff169060200190929190803573ffffffffffffffffffffffffffffffffffffffff1690602001909291908035906020019092919080359060200190640100000000811115610f6a57600080fd5b820183602082011115610f7c57600080fd5b80359060200191846001830284011164010000000083111715610f9e57600080fd5b91908080601f016020809104026020016040519081016040528093929190818152602001838380828437600081840152601f19601f820116905080830192505050505050509192919290505050612a86565b005b348015610ffe57600080fd5b5061102b6004803603602081101561101557600080fd5b8101908080359060200190929190505050612afe565b6040518080602001828103825283818151815260200191508051906020019080838360005b8381101561106b578082015181840152602081019050611050565b50505050905090810190601f1680156110985780820380516001836020036101000a031916815260200191505b509250505060405180910390f35b3480156110b257600080fd5b506110bb612dcf565b604051808273ffffffffffffffffffffffffffffffffffffffff1673ffffffffffffffffffffffffffffffffffffffff16815260200191505060405180910390f35b34801561110957600080fd5b5061114c6004803603602081101561112057600080fd5b81019080803573ffffffffffffffffffffffffffffffffffffffff169060200190929190505050612df5565b6040518080602001828103825283818151815260200191508051906020019080838360005b8381101561118c578082015181840152602081019050611171565b50505050905090810190601f1680156111b95780820380516001836020036101000a031916815260200191505b509250505060405180910390f35b3480156111d357600080fd5b50611236600480360360408110156111ea57600080fd5b81019080803573ffffffffffffffffffffffffffffffffffffffff169060200190929190803573ffffffffffffffffffffffffffffffffffffffff169060200190929190505050612ea5565b604051808215151515815260200191505060405180910390f35b606060188054806020026020016040519081016040528092919081815260200182805480156112d457602002820191906000526020600020905b8160009054906101000a900473ffffffffffffffffffffffffffffffffffffffff1673ffffffffffffffffffffffffffffffffffffffff168152602001906001019080831161128a575b5050505050905090565b6000806000837bffffffffffffffffffffffffffffffffffffffffffffffffffffffff19167bffffffffffffffffffffffffffffffffffffffffffffffffffffffff1916815260200190815260200160002060009054906101000a900460ff169050919050565b606060068054600181600116156101000203166002900480601f0160208091040260200160405190810160405280929190818152602001828054600181600116156101000203166002900480156113dd5780601f106113b2576101008083540402835291602001916113dd565b820191906000526020600020905b8154815290600101906020018083116113c057829003601f168201915b5050505050905090565b60006113f282612f39565b611447576040517f08c379a000000000000000000000000000000000000000000000000000000000815260040180806020018281038252602c8152602001806157ff602c913960400191505060405180910390fd5b6004600083815260200190815260200160002060009054906101000a900473ffffffffffffffffffffffffffffffffffffffff169050919050565b600061148d826121f8565b90508073ffffffffffffffffffffffffffffffffffffffff168373ffffffffffffffffffffffffffffffffffffffff161415611514576040517f08c379a00000000000000000000000000000000000000000000000000000000081526004018080602001828103825260218152602001806159016021913960400191505060405180910390fd5b8073ffffffffffffffffffffffffffffffffffffffff16611533612f56565b73ffffffffffffffffffffffffffffffffffffffff16148061156257506115618161155c612f56565b612ea5565b5b6115b7576040517f08c379a00000000000000000000000000000000000000000000000000000000081526004018080602001828103825260388152602001806157526038913960400191505060405180910390fd5b6115c18383612f5e565b505050565b60006115d26002613017565b905090565b601060009054906101000a900473ffffffffffffffffffffffffffffffffffffffff1673ffffffffffffffffffffffffffffffffffffffff163373ffffffffffffffffffffffffffffffffffffffff161461167d576040517f08c379a000000000000000000000000000000000000000000000000000000000815260040180806020018281038252602f815260200180615880602f913960400191505060405180910390fd5b611687828261302c565b5050565b61169581336130b6565b6040518060400160405280600781526020017f697066733a2f2f00000000000000000000000000000000000000000000000000815250601690805190602001906116e0929190615510565b506116fb336017600081548092919060010191905055613259565b60606117d760198054600181600116156101000203166002900480601f0160208091040260200160405190810160405280929190818152602001828054600181600116156101000203166002900480156117965780601f1061176b57610100808354040283529160200191611796565b820191906000526020600020905b81548152906001019060200180831161177957829003601f168201915b50505050506040518060400160405280600781526020017f3f73636f72653d0000000000000000000000000000000000000000000000000081525084613277565b905060606117eb6117e66115c6565b613393565b905061182d826040518060400160405280600d81526020017f2663686172616374657249643d0000000000000000000000000000000000000081525083613277565b9150611838826134e3565b50505050565b61184f611849612f56565b82613603565b6118a4576040517f08c379a00000000000000000000000000000000000000000000000000000000081526004018080602001828103825260318152602001806159226031913960400191505060405180910390fd5b6118af8383836136f7565b505050565b600082600f600082815260200190815260200160002060009054906101000a900473ffffffffffffffffffffffffffffffffffffffff1673ffffffffffffffffffffffffffffffffffffffff163373ffffffffffffffffffffffffffffffffffffffff161461196e576040517f08c379a00000000000000000000000000000000000000000000000000000000081526004018080602001828103825260288152602001806159536028913960400191505060405180910390fd5b600f600082815260200190815260200160002060006101000a81549073ffffffffffffffffffffffffffffffffffffffff0219169055807f7cc135e0cebb02c3480ae5d74d377283180a2601f8f644edf7987b009316c63a60405160405180910390a2826014819055506119e0615590565b6119f460125430632b22aaea60e01b61393a565b9050611ada6040518060400160405280600381526020017f6765740000000000000000000000000000000000000000000000000000000000815250601a8054600181600116156101000203166002900480601f016020809104026020016040519081016040528092919081815260200182805460018160011615610100020316600290048015611ac55780601f10611a9a57610100808354040283529160200191611ac5565b820191906000526020600020905b815481529060010190602001808311611aa857829003601f168201915b50505050508361396b9092919063ffffffff16565b611b596040518060400160405280600481526020017f70617468000000000000000000000000000000000000000000000000000000008152506040518060400160405280600981526020017f495046535f5041544800000000000000000000000000000000000000000000008152508361396b9092919063ffffffff16565b611b88601160009054906101000a900473ffffffffffffffffffffffffffffffffffffffff168260135461399e565b9250505092915050565b81600f600082815260200190815260200160002060009054906101000a900473ffffffffffffffffffffffffffffffffffffffff1673ffffffffffffffffffffffffffffffffffffffff163373ffffffffffffffffffffffffffffffffffffffff1614611c4a576040517f08c379a00000000000000000000000000000000000000000000000000000000081526004018080602001828103825260288152602001806159536028913960400191505060405180910390fd5b600f600082815260200190815260200160002060006101000a81549073ffffffffffffffffffffffffffffffffffffffff0219169055807f7cc135e0cebb02c3480ae5d74d377283180a2601f8f644edf7987b009316c63a60405160405180910390a281601581905550611cbc613c56565b7f1a1317a9b735d6402ccd1a577bb88ad490d3c2301e44fa83a56561c708287bdb60166040518080602001828103825283818154600181600116156101000203166002900481526020019150805460018160011615610100020316600290048015611d685780601f10611d3d57610100808354040283529160200191611d68565b820191906000526020600020905b815481529060010190602001808311611d4b57829003601f168201915b50509250505060405180910390a1611e1960168054600181600116156101000203166002900480601f016020809104026020016040519081016040528092919081815260200182805460018160011615610100020316600290048015611e0f5780601f10611de457610100808354040283529160200191611e0f565b820191906000526020600020905b815481529060010190602001808311611df257829003601f168201915b5050505050613e58565b7f7360cd82469b531e4be99a2c84e96f92b99ace4222d40db5047b88b2b1eaec746001601754036040518082815260200191505060405180910390a1505050565b60168054600181600116156101000203166002900480601f016020809104026020016040519081016040528092919081815260200182805460018160011615610100020316600290048015611ef05780601f10611ec557610100808354040283529160200191611ef0565b820191906000526020600020905b815481529060010190602001808311611ed357829003601f168201915b505050505081565b6000611f4b82600160008673ffffffffffffffffffffffffffffffffffffffff1673ffffffffffffffffffffffffffffffffffffffff168152602001908152602001600020613e7590919063ffffffff16565b905092915050565b601060009054906101000a900473ffffffffffffffffffffffffffffffffffffffff1673ffffffffffffffffffffffffffffffffffffffff163373ffffffffffffffffffffffffffffffffffffffff1614611ff9576040517f08c379a000000000000000000000000000000000000000000000000000000000815260040180806020018281038252602f815260200180615880602f913960400191505060405180910390fd5b80601a908051906020019061200f929190615510565b5050565b61202e83838360405180602001604052806000815250612a86565b505050565b601060009054906101000a900473ffffffffffffffffffffffffffffffffffffffff1673ffffffffffffffffffffffffffffffffffffffff163373ffffffffffffffffffffffffffffffffffffffff16146120d9576040517f08c379a000000000000000000000000000000000000000000000000000000000815260040180806020018281038252602f815260200180615880602f913960400191505060405180910390fd5b80601160006101000a81548173ffffffffffffffffffffffffffffffffffffffff021916908373ffffffffffffffffffffffffffffffffffffffff16021790555050565b600080612134836002613e8f90919063ffffffff16565b50905080915050919050565b601060009054906101000a900473ffffffffffffffffffffffffffffffffffffffff1673ffffffffffffffffffffffffffffffffffffffff163373ffffffffffffffffffffffffffffffffffffffff16146121e6576040517f08c379a000000000000000000000000000000000000000000000000000000000815260040180806020018281038252602f815260200180615880602f913960400191505060405180910390fd5b6121ef81613ebe565b60128190555050565b6000612228826040518060600160405280602981526020016157b4602991396002613ee99092919063ffffffff16565b9050919050565b606060098054600181600116156101000203166002900480601f0160208091040260200160405190810160405280929190818152602001828054600181600116156101000203166002900480156122c75780601f1061229c576101008083540402835291602001916122c7565b820191906000526020600020905b8154815290600101906020018083116122aa57829003601f168201915b5050505050905090565b60008073ffffffffffffffffffffffffffffffffffffffff168273ffffffffffffffffffffffffffffffffffffffff161415612358576040517f08c379a000000000000000000000000000000000000000000000000000000000815260040180806020018281038252602a81526020018061578a602a913960400191505060405180910390fd5b61239f600160008473ffffffffffffffffffffffffffffffffffffffff1673ffffffffffffffffffffffffffffffffffffffff168152602001908152602001600020613f08565b9050919050565b601b6020528060005260406000206000915090505481565b6000601b6000838152602001908152602001600020541161242a576040517f08c379a00000000000000000000000000000000000000000000000000000000081526004018080602001828103825260238152602001806158de6023913960400191505060405180910390fd5b6000601b60008381526020019081526020016000205490506000601b6000848152602001908152602001600020819055506000612466836121f8565b90508134116124dd576040517f08c379a000000000000000000000000000000000000000000000000000000000815260040180806020018281038252601d8152602001807f596f75206e65656420746f206861766520656e6f75676820457468657200000081525060200191505060405180910390fd5b61251e8133856040518060400160405280600f81526020017f4275792061206368617261637465720000000000000000000000000000000000815250613f1d565b60008190508073ffffffffffffffffffffffffffffffffffffffff166108fc849081150290604051600060405180830381858888f19350505050158015612569573d6000803e3d6000fd5b50823411156125bc573373ffffffffffffffffffffffffffffffffffffffff166108fc8434039081150290604051600060405180830381858888f193505050501580156125ba573d6000803e3d6000fd5b505b7f18244d78126e24657600a5b08d23c4c3f2ab33a46f8e99966bc2d6f851f0e6e4846040518082815260200191505060405180910390a150505050565b601060009054906101000a900473ffffffffffffffffffffffffffffffffffffffff1673ffffffffffffffffffffffffffffffffffffffff163373ffffffffffffffffffffffffffffffffffffffff161461269f576040517f08c379a000000000000000000000000000000000000000000000000000000000815260040180806020018281038252602f815260200180615880602f913960400191505060405180910390fd5b80601990805190602001906126b5929190615510565b5050565b606060078054600181600116156101000203166002900480601f0160208091040260200160405190810160405280929190818152602001828054600181600116156101000203166002900480156127515780601f1061272657610100808354040283529160200191612751565b820191906000526020600020905b81548152906001019060200180831161273457829003601f168201915b5050505050905090565b61276c612766612f56565b83613603565b6127c1576040517f08c379a000000000000000000000000000000000000000000000000000000000815260040180806020018281038252602881526020018061565f6028913960400191505060405180910390fd5b80601b6000848152602001908152602001600020819055507f27cdb3d44701c9e004e5bf3535f4d702ce0511e04c0bbefed28360ec35deeb2a826040518082815260200191505060405180910390a15050565b61281c612f56565b73ffffffffffffffffffffffffffffffffffffffff168273ffffffffffffffffffffffffffffffffffffffff1614156128bd576040517f08c379a00000000000000000000000000000000000000000000000000000000081526004018080602001828103825260198152602001807f4552433732313a20617070726f766520746f2063616c6c65720000000000000081525060200191505060405180910390fd5b80600560006128ca612f56565b73ffffffffffffffffffffffffffffffffffffffff1673ffffffffffffffffffffffffffffffffffffffff16815260200190815260200160002060008473ffffffffffffffffffffffffffffffffffffffff1673ffffffffffffffffffffffffffffffffffffffff16815260200190815260200160002060006101000a81548160ff0219169083151502179055508173ffffffffffffffffffffffffffffffffffffffff16612977612f56565b73ffffffffffffffffffffffffffffffffffffffff167f17307eab39ab6107e8899845ad3d59bd9653f200f220920489ca2b5937696c3183604051808215151515815260200191505060405180910390a35050565b601060009054906101000a900473ffffffffffffffffffffffffffffffffffffffff1673ffffffffffffffffffffffffffffffffffffffff163373ffffffffffffffffffffffffffffffffffffffff1614612a72576040517f08c379a000000000000000000000000000000000000000000000000000000000815260040180806020018281038252602f815260200180615880602f913960400191505060405180910390fd5b670de0b6b3a7640000810260138190555050565b612a97612a91612f56565b83613603565b612aec576040517f08c379a00000000000000000000000000000000000000000000000000000000081526004018080602001828103825260318152602001806159226031913960400191505060405180910390fd5b612af884848484613f1d565b50505050565b6060612b0982612f39565b612b5e576040517f08c379a000000000000000000000000000000000000000000000000000000000815260040180806020018281038252602f8152602001806158af602f913960400191505060405180910390fd5b6060600860008481526020019081526020016000208054600181600116156101000203166002900480601f016020809104026020016040519081016040528092919081815260200182805460018160011615610100020316600290048015612c075780601f10612bdc57610100808354040283529160200191612c07565b820191906000526020600020905b815481529060010190602001808311612bea57829003601f168201915b505050505090506060612c1861222f565b9050600081511415612c2e578192505050612dca565b600082511115612cff5780826040516020018083805190602001908083835b60208310612c705780518252602082019150602081019050602083039250612c4d565b6001836020036101000a03801982511681845116808217855250505050505090500182805190602001908083835b60208310612cc15780518252602082019150602081019050602083039250612c9e565b6001836020036101000a0380198251168184511680821785525050505050509050019250505060405160208183030381529060405292505050612dca565b80612d0985613f8f565b6040516020018083805190602001908083835b60208310612d3f5780518252602082019150602081019050602083039250612d1c565b6001836020036101000a03801982511681845116808217855250505050505090500182805190602001908083835b60208310612d905780518252602082019150602081019050602083039250612d6d565b6001836020036101000a03801982511681845116808217855250505050505090500192505050604051602081830303815290604052925050505b919050565b601060009054906101000a900473ffffffffffffffffffffffffffffffffffffffff1681565b601c6020528060005260406000206000915090508054600181600116156101000203166002900480601f016020809104026020016040519081016040528092919081815260200182805460018160011615610100020316600290048015612e9d5780601f10612e7257610100808354040283529160200191612e9d565b820191906000526020600020905b815481529060010190602001808311612e8057829003601f168201915b505050505081565b6000600560008473ffffffffffffffffffffffffffffffffffffffff1673ffffffffffffffffffffffffffffffffffffffff16815260200190815260200160002060008373ffffffffffffffffffffffffffffffffffffffff1673ffffffffffffffffffffffffffffffffffffffff16815260200190815260200160002060009054906101000a900460ff16905092915050565b6000612f4f8260026140d690919063ffffffff16565b9050919050565b600033905090565b816004600083815260200190815260200160002060006101000a81548173ffffffffffffffffffffffffffffffffffffffff021916908373ffffffffffffffffffffffffffffffffffffffff160217905550808273ffffffffffffffffffffffffffffffffffffffff16612fd1836121f8565b73ffffffffffffffffffffffffffffffffffffffff167f8c5be1e5ebec7d5bd14f71427d1e84f3dd0314c0f7b2291e5b200ac8c7c3b92560405160405180910390a45050565b6000613025826000016140f0565b9050919050565b61303582612f39565b61308a576040517f08c379a000000000000000000000000000000000000000000000000000000000815260040180806020018281038252602c81526020018061582b602c913960400191505060405180910390fd5b806008600084815260200190815260200160002090805190602001906130b1929190615510565b505050565b6060601c60008373ffffffffffffffffffffffffffffffffffffffff1673ffffffffffffffffffffffffffffffffffffffff1681526020019081526020016000208054600181600116156101000203166002900480601f01602080910402602001604051908101604052809291908181526020018280546001816001161561010002031660029004801561318b5780601f106131605761010080835404028352916020019161318b565b820191906000526020600020905b81548152906001019060200180831161316e57829003601f168201915b50505050509050600081511415613200576018829080600181540180825580915050600190039060005260206000200160009091909190916101000a81548173ffffffffffffffffffffffffffffffffffffffff021916908373ffffffffffffffffffffffffffffffffffffffff1602179055505b82601c60008473ffffffffffffffffffffffffffffffffffffffff1673ffffffffffffffffffffffffffffffffffffffff1681526020019081526020016000209080519060200190613253929190615510565b50505050565b613273828260405180602001604052806000815250614101565b5050565b60608383836040516020018084805190602001908083835b602083106132b2578051825260208201915060208101905060208303925061328f565b6001836020036101000a03801982511681845116808217855250505050505090500183805190602001908083835b6020831061330357805182526020820191506020810190506020830392506132e0565b6001836020036101000a03801982511681845116808217855250505050505090500182805190602001908083835b602083106133545780518252602082019150602081019050602083039250613331565b6001836020036101000a038019825116818451168082178552505050505050905001935050505060405160208183030381529060405290509392505050565b606060008214156133db576040518060400160405280600181526020017f300000000000000000000000000000000000000000000000000000000000000081525090506134de565b600082905060005b60008214613405578080600101915050600a82816133fd57fe5b0491506133e3565b60608167ffffffffffffffff8111801561341e57600080fd5b506040519080825280601f01601f1916602001820160405280156134515781602001600182028036833780820191505090505b50905060008290505b600086146134d6576001810390506000600a80888161347557fe5b04028703603001905060008160f81b90508084848151811061349357fe5b60200101907effffffffffffffffffffffffffffffffffffffffffffffffffffffffffffff1916908160001a905350600a88816134cc57fe5b049750505061345a565b819450505050505b919050565b60006134ed615590565b61350160125430632a2b5d1460e01b61393a565b905061354d6040518060400160405280600381526020017f6765740000000000000000000000000000000000000000000000000000000000815250848361396b9092919063ffffffff16565b6135cc6040518060400160405280600481526020017f70617468000000000000000000000000000000000000000000000000000000008152506040518060400160405280600981526020017f495046535f5041544800000000000000000000000000000000000000000000008152508361396b9092919063ffffffff16565b6135fb601160009054906101000a900473ffffffffffffffffffffffffffffffffffffffff168260135461399e565b915050919050565b600061360e82612f39565b613663576040517f08c379a000000000000000000000000000000000000000000000000000000000815260040180806020018281038252602c815260200180615726602c913960400191505060405180910390fd5b600061366e836121f8565b90508073ffffffffffffffffffffffffffffffffffffffff168473ffffffffffffffffffffffffffffffffffffffff1614806136dd57508373ffffffffffffffffffffffffffffffffffffffff166136c5846113e7565b73ffffffffffffffffffffffffffffffffffffffff16145b806136ee57506136ed8185612ea5565b5b91505092915050565b8273ffffffffffffffffffffffffffffffffffffffff16613717826121f8565b73ffffffffffffffffffffffffffffffffffffffff1614613783576040517f08c379a00000000000000000000000000000000000000000000000000000000081526004018080602001828103825260298152602001806158576029913960400191505060405180910390fd5b600073ffffffffffffffffffffffffffffffffffffffff168273ffffffffffffffffffffffffffffffffffffffff161415613809576040517f08c379a00000000000000000000000000000000000000000000000000000000081526004018080602001828103825260248152602001806156dc6024913960400191505060405180910390fd5b613814838383614172565b61381f600082612f5e565b61387081600160008673ffffffffffffffffffffffffffffffffffffffff1673ffffffffffffffffffffffffffffffffffffffff16815260200190815260200160002061417790919063ffffffff16565b506138c281600160008573ffffffffffffffffffffffffffffffffffffffff1673ffffffffffffffffffffffffffffffffffffffff16815260200190815260200160002061419190919063ffffffff16565b506138d9818360026141ab9092919063ffffffff16565b50808273ffffffffffffffffffffffffffffffffffffffff168473ffffffffffffffffffffffffffffffffffffffff167fddf252ad1be2c89b69c2b068fc378daa952ba7f163c4a11628f55a4df523b3ef60405160405180910390a4505050565b613942615590565b61394a615590565b613961858585846141e0909392919063ffffffff16565b9150509392505050565b61398282846080015161429090919063ffffffff16565b61399981846080015161429090919063ffffffff16565b505050565b600030600e54604051602001808373ffffffffffffffffffffffffffffffffffffffff1673ffffffffffffffffffffffffffffffffffffffff1660601b815260140182815260200192505050604051602081830303815290604052805190602001209050600e5483606001818152505083600f600083815260200190815260200160002060006101000a81548173ffffffffffffffffffffffffffffffffffffffff021916908373ffffffffffffffffffffffffffffffffffffffff160217905550807fb5e6e01e79f91267dc17b4e6314d5d4d03593d2ceee0fbb452b750bd70ea5af960405160405180910390a2600c60009054906101000a900473ffffffffffffffffffffffffffffffffffffffff1673ffffffffffffffffffffffffffffffffffffffff16634000aea08584613ad6876142b5565b6040518463ffffffff1660e01b8152600401808473ffffffffffffffffffffffffffffffffffffffff1673ffffffffffffffffffffffffffffffffffffffff16815260200183815260200180602001828103825283818151815260200191508051906020019080838360005b83811015613b5d578082015181840152602081019050613b42565b50505050905090810190601f168015613b8a5780820380516001836020036101000a031916815260200191505b50945050505050602060405180830381600087803b158015613bab57600080fd5b505af1158015613bbf573d6000803e3d6000fd5b505050506040513d6020811015613bd557600080fd5b8101908080519060200190929190505050613c3b576040517f08c379a00000000000000000000000000000000000000000000000000000000081526004018080602001828103825260238152602001806156b96023913960400191505060405180910390fd5b6001600e600082825401925050819055508090509392505050565b6060613c63601454614481565b90506060613c72601554614481565b9050613d1960168054600181600116156101000203166002900480601f016020809104026020016040519081016040528092919081815260200182805460018160011615610100020316600290048015613d0d5780601f10613ce257610100808354040283529160200191613d0d565b820191906000526020600020905b815481529060010190602001808311613cf057829003601f168201915b50505050508383613277565b60169080519060200190613d2e929190615510565b50613e3e60168054600181600116156101000203166002900480601f016020809104026020016040519081016040528092919081815260200182805460018160011615610100020316600290048015613dc85780601f10613d9d57610100808354040283529160200191613dc8565b820191906000526020600020905b815481529060010190602001808311613dab57829003601f168201915b50505050506040518060400160405280600981526020017f2f6d6574616461746100000000000000000000000000000000000000000000008152506040518060400160405280600581526020017f2e6a736f6e000000000000000000000000000000000000000000000000000000815250613277565b60169080519060200190613e53929190615510565b505050565b60006001613e646115c6565b039050613e71818361302c565b5050565b6000613e8483600001836145f5565b60001c905092915050565b600080600080613ea28660000186614678565b915091508160001c8160001c8090509350935050509250929050565b60006060829050600081511415613edb576000801b915050613ee4565b60208301519150505b919050565b6000613efc846000018460001b84614711565b60001c90509392505050565b6000613f1682600001614807565b9050919050565b613f288484846136f7565b613f3484848484614818565b613f89576040517f08c379a00000000000000000000000000000000000000000000000000000000081526004018080602001828103825260328152602001806156876032913960400191505060405180910390fd5b50505050565b60606000821415613fd7576040518060400160405280600181526020017f300000000000000000000000000000000000000000000000000000000000000081525090506140d1565b600082905060005b60008214614001578080600101915050600a8281613ff957fe5b049150613fdf565b60608167ffffffffffffffff8111801561401a57600080fd5b506040519080825280601f01601f19166020018201604052801561404d5781602001600182028036833780820191505090505b50905060006001830390508593505b600084146140c957600a848161406e57fe5b0660300160f81b8282806001900393508151811061408857fe5b60200101907effffffffffffffffffffffffffffffffffffffffffffffffffffffffffffff1916908160001a905350600a84816140c157fe5b04935061405c565b819450505050505b919050565b60006140e8836000018360001b614a5d565b905092915050565b600081600001805490509050919050565b61410b8383614a80565b6141186000848484614818565b61416d576040517f08c379a00000000000000000000000000000000000000000000000000000000081526004018080602001828103825260328152602001806156876032913960400191505060405180910390fd5b505050565b505050565b6000614189836000018360001b614c74565b905092915050565b60006141a3836000018360001b614d5c565b905092915050565b60006141d7846000018460001b8473ffffffffffffffffffffffffffffffffffffffff1660001b614dcc565b90509392505050565b6141e8615590565b6141f88560800151610100614ea8565b508385600001818152505082856020019073ffffffffffffffffffffffffffffffffffffffff16908173ffffffffffffffffffffffffffffffffffffffff16815250508185604001907bffffffffffffffffffffffffffffffffffffffffffffffffffffffff191690817bffffffffffffffffffffffffffffffffffffffffffffffffffffffff191681525050849050949350505050565b61429d8260038351614efc565b6142b0818361504190919063ffffffff16565b505050565b6060634042994660e01b60008084600001518560200151866040015187606001516001896080015160000151604051602401808973ffffffffffffffffffffffffffffffffffffffff1673ffffffffffffffffffffffffffffffffffffffff1681526020018881526020018781526020018673ffffffffffffffffffffffffffffffffffffffff1673ffffffffffffffffffffffffffffffffffffffff168152602001857bffffffffffffffffffffffffffffffffffffffffffffffffffffffff19167bffffffffffffffffffffffffffffffffffffffffffffffffffffffff1916815260200184815260200183815260200180602001828103825283818151815260200191508051906020019080838360005b838110156143e45780820151818401526020810190506143c9565b50505050905090810190601f1680156144115780820380516001836020036101000a031916815260200191505b509950505050505050505050604051602081830303815290604052907bffffffffffffffffffffffffffffffffffffffffffffffffffffffff19166020820180517bffffffffffffffffffffffffffffffffffffffffffffffffffffffff83818316178352505050509050919050565b606060008090505b60208160ff161080156144d45750600060f81b838260ff16602081106144ab57fe5b1a60f81b7effffffffffffffffffffffffffffffffffffffffffffffffffffffffffffff191614155b156144e6578080600101915050614489565b60608160ff1667ffffffffffffffff8111801561450257600080fd5b506040519080825280601f01601f1916602001820160405280156145355781602001600182028036833780820191505090505b509050600091505b60208260ff161080156145885750600060f81b848360ff166020811061455f57fe5b1a60f81b7effffffffffffffffffffffffffffffffffffffffffffffffffffffffffffff191614155b156145eb57838260ff166020811061459c57fe5b1a60f81b818360ff16815181106145af57fe5b60200101907effffffffffffffffffffffffffffffffffffffffffffffffffffffffffffff1916908160001a905350818060010192505061453d565b8092505050919050565b600081836000018054905011614656576040517f08c379a000000000000000000000000000000000000000000000000000000000815260040180806020018281038252602281526020018061563d6022913960400191505060405180910390fd5b82600001828154811061466557fe5b9060005260206000200154905092915050565b600080828460000180549050116146da576040517f08c379a00000000000000000000000000000000000000000000000000000000081526004018080602001828103825260228152602001806157dd6022913960400191505060405180910390fd5b60008460000184815481106146eb57fe5b906000526020600020906002020190508060000154816001015492509250509250929050565b600080846001016000858152602001908152602001600020549050600081141583906147d8576040517f08c379a00000000000000000000000000000000000000000000000000000000081526004018080602001828103825283818151815260200191508051906020019080838360005b8381101561479d578082015181840152602081019050614782565b50505050905090810190601f1680156147ca5780820380516001836020036101000a031916815260200191505b509250505060405180910390fd5b508460000160018203815481106147eb57fe5b9060005260206000209060020201600101549150509392505050565b600081600001805490509050919050565b60006148398473ffffffffffffffffffffffffffffffffffffffff16615063565b6148465760019050614a55565b60606149dc63150b7a0260e01b61485b612f56565b888787604051602401808573ffffffffffffffffffffffffffffffffffffffff1673ffffffffffffffffffffffffffffffffffffffff1681526020018473ffffffffffffffffffffffffffffffffffffffff1673ffffffffffffffffffffffffffffffffffffffff16815260200183815260200180602001828103825283818151815260200191508051906020019080838360005b8381101561490b5780820151818401526020810190506148f0565b50505050905090810190601f1680156149385780820380516001836020036101000a031916815260200191505b5095505050505050604051602081830303815290604052907bffffffffffffffffffffffffffffffffffffffffffffffffffffffff19166020820180517bffffffffffffffffffffffffffffffffffffffffffffffffffffffff8381831617835250505050604051806060016040528060328152602001615687603291398773ffffffffffffffffffffffffffffffffffffffff166150769092919063ffffffff16565b905060008180602001905160208110156149f557600080fd5b8101908080519060200190929190505050905063150b7a0260e01b7bffffffffffffffffffffffffffffffffffffffffffffffffffffffff1916817bffffffffffffffffffffffffffffffffffffffffffffffffffffffff191614925050505b949350505050565b600080836001016000848152602001908152602001600020541415905092915050565b600073ffffffffffffffffffffffffffffffffffffffff168273ffffffffffffffffffffffffffffffffffffffff161415614b23576040517f08c379a00000000000000000000000000000000000000000000000000000000081526004018080602001828103825260208152602001807f4552433732313a206d696e7420746f20746865207a65726f206164647265737381525060200191505060405180910390fd5b614b2c81612f39565b15614b9f576040517f08c379a000000000000000000000000000000000000000000000000000000000815260040180806020018281038252601c8152602001807f4552433732313a20746f6b656e20616c7265616479206d696e7465640000000081525060200191505060405180910390fd5b614bab60008383614172565b614bfc81600160008573ffffffffffffffffffffffffffffffffffffffff1673ffffffffffffffffffffffffffffffffffffffff16815260200190815260200160002061419190919063ffffffff16565b50614c13818360026141ab9092919063ffffffff16565b50808273ffffffffffffffffffffffffffffffffffffffff16600073ffffffffffffffffffffffffffffffffffffffff167fddf252ad1be2c89b69c2b068fc378daa952ba7f163c4a11628f55a4df523b3ef60405160405180910390a45050565b60008083600101600084815260200190815260200160002054905060008114614d505760006001820390506000600186600001805490500390506000866000018281548110614cbf57fe5b9060005260206000200154905080876000018481548110614cdc57fe5b9060005260206000200181905550600183018760010160008381526020019081526020016000208190555086600001805480614d1457fe5b60019003818190600052602060002001600090559055866001016000878152602001908152602001600020600090556001945050505050614d56565b60009150505b92915050565b6000614d68838361508e565b614dc1578260000182908060018154018082558091505060019003906000526020600020016000909190919091505582600001805490508360010160008481526020019081526020016000208190555060019050614dc6565b600090505b92915050565b6000808460010160008581526020019081526020016000205490506000811415614e7357846000016040518060400160405280868152602001858152509080600181540180825580915050600190039060005260206000209060020201600090919091909150600082015181600001556020820151816001015550508460000180549050856001016000868152602001908152602001600020819055506001915050614ea1565b82856000016001830381548110614e8657fe5b90600052602060002090600202016001018190555060009150505b9392505050565b614eb06155fd565b600060208381614ebc57fe5b0614614ed55760208281614ecc57fe5b06602003820191505b81836020018181525050604051808452600081528281016020016040525082905092915050565b60178111614f2957614f238160058460ff16901b60ff1617846150b190919063ffffffff16565b5061503c565b60ff8111614f6b57614f4e601860058460ff16901b17846150b190919063ffffffff16565b50614f65816001856150d19092919063ffffffff16565b5061503b565b61ffff8111614fae57614f91601960058460ff16901b17846150b190919063ffffffff16565b50614fa8816002856150d19092919063ffffffff16565b5061503a565b63ffffffff8111614ff357614fd6601a60058460ff16901b17846150b190919063ffffffff16565b50614fed816004856150d19092919063ffffffff16565b50615039565b67ffffffffffffffff81116150385761501f601b60058460ff16901b17846150b190919063ffffffff16565b50615036816008856150d19092919063ffffffff16565b505b5b5b5b5b505050565b6150496155fd565b61505b838460000151518485516150f3565b905092915050565b600080823b905060008111915050919050565b606061508584846000856151ac565b90509392505050565b600080836001016000848152602001908152602001600020541415905092915050565b6150b96155fd565b6150c98384600001515184615355565b905092915050565b6150d96155fd565b6150ea8485600001515185856153a3565b90509392505050565b6150fb6155fd565b825182111561510957600080fd5b846020015182850111156151345761513385600261512d8860200151888701615404565b02615420565b5b6000808651805187602083010193508088870111156151535787860182525b60208701925050505b6020841061517f578051825260208201915060208101905060208403935061515c565b60006001856020036101000a03905080198251168184511681811785525050879350505050949350505050565b606082471015615207576040517f08c379a00000000000000000000000000000000000000000000000000000000081526004018080602001828103825260268152602001806157006026913960400191505060405180910390fd5b61521085615063565b615282576040517f08c379a000000000000000000000000000000000000000000000000000000000815260040180806020018281038252601d8152602001807f416464726573733a2063616c6c20746f206e6f6e2d636f6e747261637400000081525060200191505060405180910390fd5b600060608673ffffffffffffffffffffffffffffffffffffffff1685876040518082805190602001908083835b602083106152d257805182526020820191506020810190506020830392506152af565b6001836020036101000a03801982511681845116808217855250505050505090500191505060006040518083038185875af1925050503d8060008114615334576040519150601f19603f3d011682016040523d82523d6000602084013e615339565b606091505b5091509150615349828286615444565b92505050949350505050565b61535d6155fd565b8360200151831061537a57615379846002866020015102615420565b5b8351805160208583010184815381861415615396576001820183525b5050508390509392505050565b6153ab6155fd565b846020015184830111156153c9576153c885600286850102615420565b5b60006001836101000a03905085518386820101858319825116178152815185880111156153f65784870182525b505085915050949350505050565b6000818311156154165782905061541a565b8190505b92915050565b6060826000015190506154338383614ea8565b5061543e8382615041565b50505050565b6060831561545457829050615509565b6000835111156154675782518084602001fd5b816040517f08c379a00000000000000000000000000000000000000000000000000000000081526004018080602001828103825283818151815260200191508051906020019080838360005b838110156154ce5780820151818401526020810190506154b3565b50505050905090810190601f1680156154fb5780820380516001836020036101000a031916815260200191505b509250505060405180910390fd5b9392505050565b828054600181600116156101000203166002900490600052602060002090601f016020900481019282601f1061555157805160ff191683800117855561557f565b8280016001018555821561557f579182015b8281111561557e578251825591602001919060010190615563565b5b50905061558c9190615617565b5090565b6040518060a0016040528060008019168152602001600073ffffffffffffffffffffffffffffffffffffffff16815260200160007bffffffffffffffffffffffffffffffffffffffffffffffffffffffff19168152602001600081526020016155f76155fd565b81525090565b604051806040016040528060608152602001600081525090565b61563991905b8082111561563557600081600090555060010161561d565b5090565b9056fe456e756d657261626c655365743a20696e646578206f7574206f6620626f756e64734552433732313a2043616c6c6572206973206e6f74206f776e6572206e6f7220617070726f7665644552433732313a207472616e7366657220746f206e6f6e20455243373231526563656976657220696d706c656d656e746572756e61626c6520746f207472616e73666572416e6443616c6c20746f206f7261636c654552433732313a207472616e7366657220746f20746865207a65726f2061646472657373416464726573733a20696e73756666696369656e742062616c616e636520666f722063616c6c4552433732313a206f70657261746f7220717565727920666f72206e6f6e6578697374656e7420746f6b656e4552433732313a20617070726f76652063616c6c6572206973206e6f74206f776e6572206e6f7220617070726f76656420666f7220616c6c4552433732313a2062616c616e636520717565727920666f7220746865207a65726f20616464726573734552433732313a206f776e657220717565727920666f72206e6f6e6578697374656e7420746f6b656e456e756d657261626c654d61703a20696e646578206f7574206f6620626f756e64734552433732313a20617070726f76656420717565727920666f72206e6f6e6578697374656e7420746f6b656e4552433732314d657461646174613a2055524920736574206f66206e6f6e6578697374656e7420746f6b656e4552433732313a207472616e73666572206f6620746f6b656e2074686174206973206e6f74206f776e5468652063616c6c65722073686f756c6420626520746865206f776e6572206f66207468697320636f6e74726163744552433732314d657461646174613a2055524920717565727920666f72206e6f6e6578697374656e7420746f6b656e546865206368617261637465722073686f756c6420626520757020666f722073616c654552433732313a20617070726f76616c20746f2063757272656e74206f776e65724552433732313a207472616e736665722063616c6c6572206973206e6f74206f776e6572206e6f7220617070726f766564536f75726365206d75737420626520746865206f7261636c65206f66207468652072657175657374a26469706673582212205637fd2767b37c41d12ef633f91ac9b07fe93d794d62e56b52e859ab41ccb35b64736f6c6343000606003368747470733a2f2f72616e646f6d697a652d6368617261637465722e6865726f6b756170702e636f6d2f7365636f6e642f68747470733a2f2f72616e646f6d697a652d6368617261637465722e6865726f6b756170702e636f6d2f66697273742f",
  "immutableReferences": {},
  "source": "// SPDX-License-Identifier: MIT\npragma solidity ^0.6.6;\n\nimport \"@chainlink/contracts/src/v0.6/ChainlinkClient.sol\";\nimport \"@openzeppelin/contracts/token/ERC721/ERC721.sol\";\n\ncontract PlaneRush is ERC721, ChainlinkClient {\n  address public contractOwner;\n\n  address private oracle;\n  bytes32 private jobId;\n  uint256 private fee;\n\n  constructor() public ERC721(\"Plane\", \"PLNR\") {\n    setChainlinkToken(0x326C977E6efc84E512bB9C30f76E30c160eD06FB); // Chainlink token address in Polygon Mumbai testnet\n\n    contractOwner = msg.sender;\n\n    oracle = 0xc8D925525CA8759812d0c299B90247917d4d4b7C;\n    jobId = \"a7330d0b4b964c05abc66a26307047c0\";\n    fee = 0.01 * 10**18;\n    uniqueTokenId = 0;\n  }\n\n  event CharacterBought(uint256 tokenId);\n\n  event CharacterUpForSale(uint256 tokenId);\n\n  modifier onlyContractOwner() {\n    require(\n      msg.sender == contractOwner,\n      \"The caller should be the owner of this contract\"\n    );\n    _;\n  }\n\n  bytes32 private ipfsHashOneBytes32;\n  bytes32 private ipfsHashTwoBytes32;\n\n  string public ipfsLink = \"ipfs://\";\n\n  uint256 private uniqueTokenId = 0;\n\n  address[] private users;\n\n  function setOracleAddress(address _oracleAddress) public onlyContractOwner {\n    oracle = _oracleAddress;\n  }\n\n  function setJobID(string memory _jobID) public onlyContractOwner {\n    jobId = stringToBytes32(_jobID);\n  }\n\n  function setFeeInLink(uint256 _fee) public onlyContractOwner {\n    fee = _fee * 10**18;\n  }\n\n  string private apiBaseUrl =\n    \"https://randomize-character.herokuapp.com/first/\";\n  string private apiSecondUrl =\n    \"https://randomize-character.herokuapp.com/second/\";\n\n  function getUsers() public view returns (address[] memory) {\n    return users;\n  }\n\n  function setApiBaseUrl(string memory _url) public onlyContractOwner {\n    apiBaseUrl = _url;\n  }\n\n  function setApiSecondUrl(string memory _url) public onlyContractOwner {\n    apiSecondUrl = _url;\n  }\n\n  event NewCharacterGenerated(uint256 tokenId);\n\n  event DataReceivedFromAPI(string ipfsLink);\n\n  mapping(uint256 => uint256) public charactersForSale;\n\n  mapping(address => string) public userAddressToHighScore;\n\n  function putUpCharacterForSale(uint256 _tokenId, uint256 _price) public {\n    require(\n      _isApprovedOrOwner(_msgSender(), _tokenId),\n      \"ERC721: Caller is not owner nor approved\"\n    );\n    charactersForSale[_tokenId] = _price;\n\n    emit CharacterUpForSale(_tokenId);\n  }\n\n  function buyCharacter(uint256 _tokenId) public payable {\n    require(\n      charactersForSale[_tokenId] > 0,\n      \"The character should be up for sale\"\n    );\n\n    uint256 characterCost = charactersForSale[_tokenId];\n    charactersForSale[_tokenId] = 0;\n\n    address ownerAddress = ownerOf(_tokenId);\n    require(msg.value > characterCost, \"You need to have enough Ether\");\n\n    _safeTransfer(ownerAddress, msg.sender, _tokenId, bytes(\"Buy a character\"));\n\n    address payable ownerAddressPayable = payable(ownerAddress);\n    ownerAddressPayable.transfer(characterCost);\n    if (msg.value > characterCost) {\n      payable(msg.sender).transfer(msg.value - characterCost);\n    }\n\n    emit CharacterBought(_tokenId);\n  }\n\n  function setHighScore(string memory _highScore, address _sender) internal {\n    bytes memory score = bytes(userAddressToHighScore[_sender]);\n    if (score.length == 0) {\n      users.push(_sender);\n    }\n    userAddressToHighScore[_sender] = _highScore;\n  }\n\n  function requestIPFSHash(string memory apiLink)\n    private\n    returns (bytes32 requestId)\n  {\n    Chainlink.Request memory request = buildChainlinkRequest(\n      jobId,\n      address(this),\n      this.fulfillFirstRequest.selector\n    );\n    request.add(\"get\", apiLink);\n    request.add(\"path\", \"IPFS_PATH\");\n\n    return sendChainlinkRequestTo(oracle, request, fee);\n  }\n\n  function requestNewRandomCharacter(string memory score) public {\n    setHighScore(score, msg.sender);\n    ipfsLink = \"ipfs://\";\n    _safeMint(msg.sender, uniqueTokenId++);\n    string memory apiLink = append(apiBaseUrl, \"?score=\", score);\n    string memory characterId = uint2str(totalSupply());\n    apiLink = append(apiLink, \"&characterId=\", characterId);\n    requestIPFSHash(apiLink);\n  }\n\n  function fulfillFirstRequest(bytes32 _requestId, bytes32 dataFromAPI)\n    public\n    recordChainlinkFulfillment(_requestId)\n    returns (bytes32 requestId)\n  {\n    ipfsHashOneBytes32 = dataFromAPI;\n\n    Chainlink.Request memory request = buildChainlinkRequest(\n      jobId,\n      address(this),\n      this.fulfillSecondRequest.selector\n    );\n    request.add(\"get\", apiSecondUrl);\n    request.add(\"path\", \"IPFS_PATH\");\n\n    return sendChainlinkRequestTo(oracle, request, fee);\n  }\n\n  function fulfillSecondRequest(bytes32 _requestId, bytes32 dataFromAPI)\n    public\n    recordChainlinkFulfillment(_requestId)\n  {\n    ipfsHashTwoBytes32 = dataFromAPI;\n    generateIPFSLink();\n\n    emit DataReceivedFromAPI(ipfsLink);\n\n    setTokenURI(ipfsLink);\n\n    emit NewCharacterGenerated(uniqueTokenId - 1);\n  }\n\n  function setTokenURI(string memory _tokenURI) private {\n    uint256 lastTokenId = totalSupply() - 1;\n    _setTokenURI(lastTokenId, _tokenURI);\n  }\n\n  function updateTokenURI(uint256 _tokenId, string memory _tokenURI)\n    public\n    onlyContractOwner\n  {\n    _setTokenURI(_tokenId, _tokenURI);\n  }\n\n  function uint2str(uint256 _i)\n    internal\n    pure\n    returns (string memory _uintAsString)\n  {\n    if (_i == 0) {\n      return \"0\";\n    }\n    uint256 j = _i;\n    uint256 len;\n    while (j != 0) {\n      len++;\n      j /= 10;\n    }\n    bytes memory bstr = new bytes(len);\n    uint256 k = len;\n    while (_i != 0) {\n      k = k - 1;\n      uint8 temp = (48 + uint8(_i - (_i / 10) * 10));\n      bytes1 b1 = bytes1(temp);\n      bstr[k] = b1;\n      _i /= 10;\n    }\n    return string(bstr);\n  }\n\n  function append(\n    string memory a,\n    string memory b,\n    string memory c\n  ) internal pure returns (string memory) {\n    return string(abi.encodePacked(a, b, c));\n  }\n\n  function generateIPFSLink() private {\n    string memory ipfsHashPartOne = bytes32ToString(ipfsHashOneBytes32);\n    string memory ipfsHashPartTwo = bytes32ToString(ipfsHashTwoBytes32);\n    ipfsLink = append(ipfsLink, ipfsHashPartOne, ipfsHashPartTwo);\n    ipfsLink = append(ipfsLink, \"/metadata\", \".json\");\n  }\n\n  function bytes32ToString(bytes32 _bytes32)\n    internal\n    pure\n    returns (string memory)\n  {\n    uint8 i = 0;\n    while (i < 32 && _bytes32[i] != 0) {\n      i++;\n    }\n    bytes memory bytesArray = new bytes(i);\n    for (i = 0; i < 32 && _bytes32[i] != 0; i++) {\n      bytesArray[i] = _bytes32[i];\n    }\n    return string(bytesArray);\n  }\n\n  function stringToBytes32(string memory source)\n    internal\n    pure\n    returns (bytes32 result)\n  {\n    bytes memory tempEmptyStringTest = bytes(source);\n    if (tempEmptyStringTest.length == 0) {\n      return 0x0;\n    }\n    assembly {\n      result := mload(add(source, 32))\n    }\n  }\n}\n",
  "sourcePath": "/mnt/d/DTech/contracts/PlaneRush.sol",
  "compiler": {
    "name": "solc",
    "version": "0.6.6+commit.6c089d02.Emscripten.clang"
  },
  "schemaVersion": "3.4.1",
  "updatedAt": "2021-11-28T14:07:44.991Z",
  "networkType": "ethereum",
  "devdoc": {
    "methods": {
      "approve(address,uint256)": {
        "details": "See {IERC721-approve}."
      },
      "balanceOf(address)": {
        "details": "See {IERC721-balanceOf}."
      },
      "baseURI()": {
        "details": "Returns the base URI set via {_setBaseURI}. This will be automatically added as a prefix in {tokenURI} to each token's URI, or to the token ID if no specific URI is set for that token ID."
      },
      "getApproved(uint256)": {
        "details": "See {IERC721-getApproved}."
      },
      "isApprovedForAll(address,address)": {
        "details": "See {IERC721-isApprovedForAll}."
      },
      "name()": {
        "details": "See {IERC721Metadata-name}."
      },
      "ownerOf(uint256)": {
        "details": "See {IERC721-ownerOf}."
      },
      "safeTransferFrom(address,address,uint256)": {
        "details": "See {IERC721-safeTransferFrom}."
      },
      "safeTransferFrom(address,address,uint256,bytes)": {
        "details": "See {IERC721-safeTransferFrom}."
      },
      "setApprovalForAll(address,bool)": {
        "details": "See {IERC721-setApprovalForAll}."
      },
      "supportsInterface(bytes4)": {
        "details": "See {IERC165-supportsInterface}.     * Time complexity O(1), guaranteed to always use less than 30 000 gas."
      },
      "symbol()": {
        "details": "See {IERC721Metadata-symbol}."
      },
      "tokenByIndex(uint256)": {
        "details": "See {IERC721Enumerable-tokenByIndex}."
      },
      "tokenOfOwnerByIndex(address,uint256)": {
        "details": "See {IERC721Enumerable-tokenOfOwnerByIndex}."
      },
      "tokenURI(uint256)": {
        "details": "See {IERC721Metadata-tokenURI}."
      },
      "totalSupply()": {
        "details": "See {IERC721Enumerable-totalSupply}."
      },
      "transferFrom(address,address,uint256)": {
        "details": "See {IERC721-transferFrom}."
      }
    }
  },
  "userdoc": {
    "methods": {}
  }
}